{
  "contractName": "FundingCompany",
  "abi": [
    {
      "inputs": [],
      "stateMutability": "nonpayable",
      "type": "constructor"
    },
    {
      "inputs": [],
      "name": "platformManager",
      "outputs": [
        {
          "internalType": "address",
          "name": "",
          "type": "address"
        }
      ],
      "stateMutability": "view",
      "type": "function",
      "constant": true
    },
    {
      "inputs": [
        {
          "internalType": "string",
          "name": "_name",
          "type": "string"
        },
        {
          "internalType": "uint256",
          "name": "_investMoney",
          "type": "uint256"
        },
        {
          "internalType": "uint256",
          "name": "_targetMoney",
          "type": "uint256"
        },
        {
          "internalType": "string",
          "name": "_projectDescrip",
          "type": "string"
        },
        {
          "internalType": "uint256",
          "name": "_duration",
          "type": "uint256"
        }
      ],
      "name": "createFunding",
      "outputs": [],
      "stateMutability": "nonpayable",
      "type": "function"
    },
    {
      "inputs": [],
      "name": "getAllFundings",
      "outputs": [
        {
          "internalType": "address[]",
          "name": "",
          "type": "address[]"
        }
      ],
      "stateMutability": "view",
      "type": "function",
      "constant": true
    },
    {
      "inputs": [],
      "name": "getCreatorFundings",
      "outputs": [
        {
          "internalType": "address[]",
          "name": "",
          "type": "address[]"
        }
      ],
      "stateMutability": "view",
      "type": "function",
      "constant": true
    },
    {
      "inputs": [],
      "name": "getInvestorFunding",
      "outputs": [
        {
          "internalType": "address[]",
          "name": "",
          "type": "address[]"
        }
      ],
      "stateMutability": "view",
      "type": "function",
      "constant": true
    }
  ],
  "bytecode": "0x608060405234801561001057600080fd5b50336000806101000a81548173ffffffffffffffffffffffffffffffffffffffff021916908373ffffffffffffffffffffffffffffffffffffffff16021790555060405161005d906100bf565b604051809103906000f080158015610079573d6000803e3d6000fd5b50600360006101000a81548173ffffffffffffffffffffffffffffffffffffffff021916908373ffffffffffffffffffffffffffffffffffffffff1602179055506100cc565b6102fd8061236383390190565b612288806100db6000396000f3fe608060405234801561001057600080fd5b50600436106100575760003560e01c806339ff13271461005c5780635470fe05146100bb57806372a3143c146100ef578063fc93110a1461014e578063ff14fdbb146101ad575b600080fd5b61006461031d565b6040518080602001828103825283818151815260200191508051906020019060200280838360005b838110156100a757808201518184015260208101905061008c565b505050509050019250505060405180910390f35b6100c3610482565b604051808273ffffffffffffffffffffffffffffffffffffffff16815260200191505060405180910390f35b6100f76104a6565b6040518080602001828103825283818151815260200191508051906020019060200280838360005b8381101561013a57808201518184015260208101905061011f565b505050509050019250505060405180910390f35b610156610534565b6040518080602001828103825283818151815260200191508051906020019060200280838360005b8381101561019957808201518184015260208101905061017e565b505050509050019250505060405180910390f35b61031b600480360360a08110156101c357600080fd5b81019080803590602001906401000000008111156101e057600080fd5b8201836020820111156101f257600080fd5b8035906020019184600183028401116401000000008311171561021457600080fd5b91908080601f016020809104026020016040519081016040528093929190818152602001838380828437600081840152601f19601f82011690508083019250505050505050919291929080359060200190929190803590602001909291908035906020019064010000000081111561028b57600080fd5b82018360208201111561029d57600080fd5b803590602001918460018302840111640100000000831117156102bf57600080fd5b91908080601f016020809104026020016040519081016040528093929190818152602001838380828437600081840152601f19601f820116905080830192505050505050509192919290803590602001909291905050506105ff565b005b6060600360009054906101000a900473ffffffffffffffffffffffffffffffffffffffff1673ffffffffffffffffffffffffffffffffffffffff16634ca765a7336040518263ffffffff1660e01b8152600401808273ffffffffffffffffffffffffffffffffffffffff16815260200191505060006040518083038186803b1580156103a857600080fd5b505afa1580156103bc573d6000803e3d6000fd5b505050506040513d6000823e3d601f19601f8201168201806040525060208110156103e657600080fd5b810190808051604051939291908464010000000082111561040657600080fd5b8382019150602082018581111561041c57600080fd5b825186602082028301116401000000008211171561043957600080fd5b8083526020830192505050908051906020019060200280838360005b83811015610470578082015181840152602081019050610455565b50505050905001604052505050905090565b60008054906101000a900473ffffffffffffffffffffffffffffffffffffffff1681565b6060600180548060200260200160405190810160405280929190818152602001828054801561052a57602002820191906000526020600020905b8160009054906101000a900473ffffffffffffffffffffffffffffffffffffffff1673ffffffffffffffffffffffffffffffffffffffff16815260200190600101908083116104e0575b5050505050905090565b6060600260003373ffffffffffffffffffffffffffffffffffffffff1673ffffffffffffffffffffffffffffffffffffffff1681526020019081526020016000208054806020026020016040519081016040528092919081815260200182805480156105f557602002820191906000526020600020905b8160009054906101000a900473ffffffffffffffffffffffffffffffffffffffff1673ffffffffffffffffffffffffffffffffffffffff16815260200190600101908083116105ab575b5050505050905090565b6000858585858533600360009054906101000a900473ffffffffffffffffffffffffffffffffffffffff166040516106369061088a565b8080602001888152602001878152602001806020018681526020018573ffffffffffffffffffffffffffffffffffffffff1681526020018473ffffffffffffffffffffffffffffffffffffffff16815260200183810383528a818151815260200191508051906020019080838360005b838110156106c15780820151818401526020810190506106a6565b50505050905090810190601f1680156106ee5780820380516001836020036101000a031916815260200191505b50838103825287818151815260200191508051906020019080838360005b8381101561072757808201518184015260208101905061070c565b50505050905090810190601f1680156107545780820380516001836020036101000a031916815260200191505b509950505050505050505050604051809103906000f08015801561077c573d6000803e3d6000fd5b5090506001819080600181540180825580915050600190039060005260206000200160009091909190916101000a81548173ffffffffffffffffffffffffffffffffffffffff021916908373ffffffffffffffffffffffffffffffffffffffff160217905550600260003373ffffffffffffffffffffffffffffffffffffffff1673ffffffffffffffffffffffffffffffffffffffff168152602001908152602001600020819080600181540180825580915050600190039060005260206000200160009091909190916101000a81548173ffffffffffffffffffffffffffffffffffffffff021916908373ffffffffffffffffffffffffffffffffffffffff160217905550505050505050565b6119bb806108988339019056fe60806040523480156200001157600080fd5b50604051620019bb380380620019bb833981810160405260e08110156200003757600080fd5b81019080805160405193929190846401000000008211156200005857600080fd5b838201915060208201858111156200006f57600080fd5b82518660018202830111640100000000821117156200008d57600080fd5b8083526020830192505050908051906020019080838360005b83811015620000c3578082015181840152602081019050620000a6565b50505050905090810190601f168015620000f15780820380516001836020036101000a031916815260200191505b506040526020018051906020019092919080519060200190929190805160405193929190846401000000008211156200012957600080fd5b838201915060208201858111156200014057600080fd5b82518660018202830111640100000000821117156200015e57600080fd5b8083526020830192505050908051906020019080838360005b838110156200019457808201518184015260208101905062000177565b50505050905090810190601f168015620001c25780820380516001836020036101000a031916815260200191505b50604052602001805190602001909291908051906020019092919080519060200190929190505050816000806101000a81548173ffffffffffffffffffffffffffffffffffffffff021916908373ffffffffffffffffffffffffffffffffffffffff160217905550866001908051906020019062000242929190620002c1565b508560038190555084600481905550836002908051906020019062000269929190620002c1565b5042830160058190555080600860006101000a81548173ffffffffffffffffffffffffffffffffffffffff021916908373ffffffffffffffffffffffffffffffffffffffff1602179055505050505050505062000367565b828054600181600116156101000203166002900490600052602060002090601f016020900481019282601f106200030457805160ff191683800117855562000335565b8280016001018555821562000335579182015b828111156200033457825182559160200191906001019062000317565b5b50905062000344919062000348565b5090565b5b808211156200036357600081600090555060010162000349565b5090565b61164480620003776000396000f3fe60806040526004361061011f5760003560e01c806381d12c58116100a0578063d7d1bbdb11610064578063d7d1bbdb14610780578063df12b94e146107bb578063e8b5e51f146107e6578063ed21187a146107f0578063fc2615d51461081b5761011f565b806381d12c58146104115780638a9cfd55146105025780639a33e300146105f4578063b2f5a54c14610684578063c709e97d146106f05761011f565b80633feb5f2b116100e75780633feb5f2b146102cf57806343cce08e14610334578063481c6a751461035f578063612ef2bd146103a0578063687eeaf7146104075761011f565b8063034410061461012457806312065fe01461015f5780631891d0361461018a57806329dcb0cf146102795780633410452a146102a4575b600080fd5b34801561013057600080fd5b5061015d6004803603602081101561014757600080fd5b8101908080359060200190929190505050610846565b005b34801561016b57600080fd5b5061017461097f565b6040518082815260200191505060405180910390f35b34801561019657600080fd5b506101c3600480360360208110156101ad57600080fd5b8101908080359060200190929190505050610987565b60405180806020018781526020018673ffffffffffffffffffffffffffffffffffffffff1681526020018515158152602001848152602001838152602001828103825288818151815260200191508051906020019080838360005b8381101561023957808201518184015260208101905061021e565b50505050905090810190601f1680156102665780820380516001836020036101000a031916815260200191505b5097505050505050505060405180910390f35b34801561028557600080fd5b5061028e610b16565b6040518082815260200191505060405180910390f35b3480156102b057600080fd5b506102b9610b1c565b6040518082815260200191505060405180910390f35b3480156102db57600080fd5b50610308600480360360208110156102f257600080fd5b8101908080359060200190929190505050610b29565b604051808273ffffffffffffffffffffffffffffffffffffffff16815260200191505060405180910390f35b34801561034057600080fd5b50610349610b65565b6040518082815260200191505060405180910390f35b34801561036b57600080fd5b50610374610b6b565b604051808273ffffffffffffffffffffffffffffffffffffffff16815260200191505060405180910390f35b3480156103ac57600080fd5b506103ef600480360360208110156103c357600080fd5b81019080803573ffffffffffffffffffffffffffffffffffffffff169060200190929190505050610b8f565b60405180821515815260200191505060405180910390f35b61040f610baf565b005b34801561041d57600080fd5b5061044a6004803603602081101561043457600080fd5b8101908080359060200190929190505050610cd2565b60405180806020018681526020018573ffffffffffffffffffffffffffffffffffffffff16815260200184815260200183600281111561048657fe5b8152602001828103825287818151815260200191508051906020019080838360005b838110156104c35780820151818401526020810190506104a8565b50505050905090810190601f1680156104f05780820380516001836020036101000a031916815260200191505b50965050505050505060405180910390f35b34801561050e57600080fd5b506105f26004803603606081101561052557600080fd5b810190808035906020019064010000000081111561054257600080fd5b82018360208201111561055457600080fd5b8035906020019184600183028401116401000000008311171561057657600080fd5b91908080601f016020809104026020016040519081016040528093929190818152602001838380828437600081840152601f19601f82011690508083019250505050505050919291929080359060200190929190803573ffffffffffffffffffffffffffffffffffffffff169060200190929190505050610dda565b005b34801561060057600080fd5b50610609610f5b565b6040518080602001828103825283818151815260200191508051906020019080838360005b8381101561064957808201518184015260208101905061062e565b50505050905090810190601f1680156106765780820380516001836020036101000a031916815260200191505b509250505060405180910390f35b34801561069057600080fd5b50610699610ff9565b6040518080602001828103825283818151815260200191508051906020019060200280838360005b838110156106dc5780820151818401526020810190506106c1565b505050509050019250505060405180910390f35b3480156106fc57600080fd5b50610705611087565b6040518080602001828103825283818151815260200191508051906020019080838360005b8381101561074557808201518184015260208101905061072a565b50505050905090810190601f1680156107725780820380516001836020036101000a031916815260200191505b509250505060405180910390f35b34801561078c57600080fd5b506107b9600480360360208110156107a357600080fd5b8101908080359060200190929190505050611125565b005b3480156107c757600080fd5b506107d06112db565b6040518082815260200191505060405180910390f35b6107ee6112e1565b005b3480156107fc57600080fd5b506108056114ca565b6040518082815260200191505060405180910390f35b34801561082757600080fd5b506108306114d7565b6040518082815260200191505060405180910390f35b60008054906101000a900473ffffffffffffffffffffffffffffffffffffffff1673ffffffffffffffffffffffffffffffffffffffff163373ffffffffffffffffffffffffffffffffffffffff161461089e57600080fd5b6000600a82815481106108ad57fe5b9060005260206000209060050201905080600101544710156108ce57600080fd5b6006805490506002826003015402116108e657600080fd5b8060020160009054906101000a900473ffffffffffffffffffffffffffffffffffffffff1673ffffffffffffffffffffffffffffffffffffffff166108fc82600101549081150290604051600060405180830381858888f19350505050158015610954573d6000803e3d6000fd5b5060028160040160006101000a81548160ff0219169083600281111561097657fe5b02179055505050565b600047905090565b6060600080600080600086600a80549050116109a257600080fd5b6000600a88815481106109b157fe5b906000526020600020906005020190506000600960003373ffffffffffffffffffffffffffffffffffffffff1673ffffffffffffffffffffffffffffffffffffffff16815260200190815260200160002060009054906101000a900460ff1690508160000182600101548360020160009054906101000a900473ffffffffffffffffffffffffffffffffffffffff168385600301548660040160009054906101000a900460ff166002811115610a6357fe5b858054600181600116156101000203166002900480601f016020809104026020016040519081016040528092919081815260200182805460018160011615610100020316600290048015610af85780601f10610acd57610100808354040283529160200191610af8565b820191906000526020600020905b815481529060010190602001808311610adb57829003601f168201915b50505050509550975097509750975097509750505091939550919395565b60055481565b6000600a80549050905090565b60068181548110610b3657fe5b906000526020600020016000915054906101000a900473ffffffffffffffffffffffffffffffffffffffff1681565b60045481565b60008054906101000a900473ffffffffffffffffffffffffffffffffffffffff1681565b60076020528060005260406000206000915054906101000a900460ff1681565b60008054906101000a900473ffffffffffffffffffffffffffffffffffffffff1673ffffffffffffffffffffffffffffffffffffffff163373ffffffffffffffffffffffffffffffffffffffff1614610c0757600080fd5b600554421015610c1657600080fd5b6004544710610c2457600080fd5b60005b600680549050811015610cc15760068181548110610c4157fe5b9060005260206000200160009054906101000a900473ffffffffffffffffffffffffffffffffffffffff1673ffffffffffffffffffffffffffffffffffffffff166108fc6003549081150290604051600060405180830381858888f19350505050158015610cb3573d6000803e3d6000fd5b508080600101915050610c27565b5060066000610cd09190611500565b565b600a8181548110610cdf57fe5b9060005260206000209060050201600091509050806000018054600181600116156101000203166002900480601f016020809104026020016040519081016040528092919081815260200182805460018160011615610100020316600290048015610d8b5780601f10610d6057610100808354040283529160200191610d8b565b820191906000526020600020905b815481529060010190602001808311610d6e57829003601f168201915b5050505050908060010154908060020160009054906101000a900473ffffffffffffffffffffffffffffffffffffffff16908060030154908060040160009054906101000a900460ff16905085565b60008054906101000a900473ffffffffffffffffffffffffffffffffffffffff1673ffffffffffffffffffffffffffffffffffffffff163373ffffffffffffffffffffffffffffffffffffffff1614610e3257600080fd5b610e3a611521565b6040518060a001604052808581526020018481526020018373ffffffffffffffffffffffffffffffffffffffff1681526020016000815260200160006002811115610e8157fe5b8152509050600a8190806001815401808255809150506001900390600052602060002090600502016000909190919091506000820151816000019080519060200190610ece929190611571565b506020820151816001015560408201518160020160006101000a81548173ffffffffffffffffffffffffffffffffffffffff021916908373ffffffffffffffffffffffffffffffffffffffff1602179055506060820151816003015560808201518160040160006101000a81548160ff02191690836002811115610f4e57fe5b0217905550505050505050565b60018054600181600116156101000203166002900480601f016020809104026020016040519081016040528092919081815260200182805460018160011615610100020316600290048015610ff15780601f10610fc657610100808354040283529160200191610ff1565b820191906000526020600020905b815481529060010190602001808311610fd457829003601f168201915b505050505081565b6060600680548060200260200160405190810160405280929190818152602001828054801561107d57602002820191906000526020600020905b8160009054906101000a900473ffffffffffffffffffffffffffffffffffffffff1673ffffffffffffffffffffffffffffffffffffffff1681526020019060010190808311611033575b5050505050905090565b60028054600181600116156101000203166002900480601f01602080910402602001604051908101604052809291908181526020018280546001816001161561010002031660029004801561111d5780601f106110f25761010080835404028352916020019161111d565b820191906000526020600020905b81548152906001019060200180831161110057829003601f168201915b505050505081565b600760003373ffffffffffffffffffffffffffffffffffffffff1673ffffffffffffffffffffffffffffffffffffffff16815260200190815260200160002060009054906101000a900460ff1661117b57600080fd5b6000600a828154811061118a57fe5b9060005260206000209060050201905060001515600960003373ffffffffffffffffffffffffffffffffffffffff1673ffffffffffffffffffffffffffffffffffffffff16815260200190815260200160002060009054906101000a900460ff161515146111f757600080fd5b6000600281111561120457fe5b8160040160009054906101000a900460ff16600281111561122157fe5b1461122b57600080fd5b600181600301600082825401925050819055506001600960003373ffffffffffffffffffffffffffffffffffffffff1673ffffffffffffffffffffffffffffffffffffffff16815260200190815260200160002060006101000a81548160ff021916908315150217905550600680549050600282600301540211156112d757600160028111156112b757fe5b8160040160009054906101000a900460ff1660028111156112d457fe5b50505b5050565b60035481565b60001515600760003373ffffffffffffffffffffffffffffffffffffffff1673ffffffffffffffffffffffffffffffffffffffff16815260200190815260200160002060009054906101000a900460ff1615151461133e57600080fd5b600354341461134c57600080fd5b6006339080600181540180825580915050600190039060005260206000200160009091909190916101000a81548173ffffffffffffffffffffffffffffffffffffffff021916908373ffffffffffffffffffffffffffffffffffffffff1602179055506001600760003373ffffffffffffffffffffffffffffffffffffffff1673ffffffffffffffffffffffffffffffffffffffff16815260200190815260200160002060006101000a81548160ff021916908315150217905550600860009054906101000a900473ffffffffffffffffffffffffffffffffffffffff1673ffffffffffffffffffffffffffffffffffffffff16630b59d31933306040518363ffffffff1660e01b8152600401808373ffffffffffffffffffffffffffffffffffffffff1681526020018273ffffffffffffffffffffffffffffffffffffffff16815260200192505050600060405180830381600087803b1580156114b057600080fd5b505af11580156114c4573d6000803e3d6000fd5b50505050565b6000600680549050905090565b60006018603c804260055403816114ea57fe5b04816114f257fe5b04816114fa57fe5b04905090565b508054600082559060005260206000209081019061151e91906115f1565b50565b6040518060a001604052806060815260200160008152602001600073ffffffffffffffffffffffffffffffffffffffff168152602001600081526020016000600281111561156b57fe5b81525090565b828054600181600116156101000203166002900490600052602060002090601f016020900481019282601f106115b257805160ff19168380011785556115e0565b828001600101855582156115e0579182015b828111156115df5782518255916020019190600101906115c4565b5b5090506115ed91906115f1565b5090565b5b8082111561160a5760008160009055506001016115f2565b509056fea2646970667358221220e10fa99954fa78e28abf5523c53decf0e2fb410c6f5f7452e23886f8e2b7416a64736f6c63430007000033a26469706673582212207da58917d2a10739cc904809e77e793ad7b3fa3ea53692431978c1ace2497ebf64736f6c63430007000033608060405234801561001057600080fd5b506102dd806100206000396000f3fe608060405234801561001057600080fd5b50600436106100365760003560e01c80630b59d3191461003b5780634ca765a71461009f575b600080fd5b61009d6004803603604081101561005157600080fd5b81019080803573ffffffffffffffffffffffffffffffffffffffff169060200190929190803573ffffffffffffffffffffffffffffffffffffffff169060200190929190505050610138565b005b6100e1600480360360208110156100b557600080fd5b81019080803573ffffffffffffffffffffffffffffffffffffffff1690602001909291905050506101db565b6040518080602001828103825283818151815260200191508051906020019060200280838360005b83811015610124578082015181840152602081019050610109565b505050509050019250505060405180910390f35b6000808373ffffffffffffffffffffffffffffffffffffffff1673ffffffffffffffffffffffffffffffffffffffff168152602001908152602001600020819080600181540180825580915050600190039060005260206000200160009091909190916101000a81548173ffffffffffffffffffffffffffffffffffffffff021916908373ffffffffffffffffffffffffffffffffffffffff1602179055505050565b60606000808373ffffffffffffffffffffffffffffffffffffffff1673ffffffffffffffffffffffffffffffffffffffff16815260200190815260200160002080548060200260200160405190810160405280929190818152602001828054801561029b57602002820191906000526020600020905b8160009054906101000a900473ffffffffffffffffffffffffffffffffffffffff1673ffffffffffffffffffffffffffffffffffffffff1681526020019060010190808311610251575b5050505050905091905056fea264697066735822122061474175dee14237d00c37f46f68bde7f465b24bf0c8d0092fc8a6713b337a8064736f6c63430007000033",
  "immutableReferences": {},
  "source": "// SPDX-License-Identifier: MIT\r\npragma solidity >=0.4.22 <0.9.0;\r\n\r\ncontract Funding{\r\n    //发起人\r\n    address public manager;\r\n    //项目名\r\n    string public projectName;\r\n    //项目概述\r\n    string public projectDescrip;\r\n    //投资金额\r\n    uint public investBalance;\r\n    //目标金额\r\n    uint public targetBalance;\r\n    //截止日期\r\n    uint public deadline;\r\n    //投资人\r\n    address payable[] public investors;\r\n    //mapping someone who invest in a project\r\n    mapping(address => bool)public investMapping;\r\n    InvestorFundingContract investorfunding;//object\r\n\r\n    constructor (string memory _projectName, uint _investBalance, uint _targetBalance\r\n    ,string memory _projectDescrip , uint _durationInSeconds, address _creator\r\n    , InvestorFundingContract _investorfunding) public {\r\n        manager = _creator;\r\n        projectName = _projectName;\r\n        investBalance = _investBalance;\r\n        targetBalance = _targetBalance;\r\n        projectDescrip = _projectDescrip;\r\n        deadline = _durationInSeconds + block.timestamp;\r\n\r\n        //contract to funding\r\n        investorfunding = _investorfunding;\r\n    }\r\n\r\n    //投资\r\n    function invest() payable public{\r\n        //everyone can only invest one time\r\n        require(investMapping[msg.sender] == false);\r\n        //invest balance\r\n        require(msg.value == investBalance);\r\n        //add to investors[] array\r\n        investors.push(msg.sender);\r\n        //Mark the current account as a participant\r\n        investMapping[msg.sender] = true;\r\n        //Pass the address of the investor and the current contract to FundingFactory\r\n        investorfunding.setFunding(msg.sender,address(this));\r\n    }\r\n\r\n    modifier onlyManager(){\r\n        require(msg.sender == manager);\r\n        _;\r\n    }\r\n\r\n    //退款\r\n    function drawBack()onlyManager payable public{\r\n        require(block.timestamp >= deadline); //over deadline \r\n        require(address(this).balance < targetBalance); //or balance < targer\r\n\r\n        for(uint i = 0; i < investors.length; i++){\r\n            investors[i].transfer(investBalance);\r\n        }\r\n\r\n        //delete all investors\r\n        delete investors;\r\n    }\r\n\r\n    //枚举\r\n    enum requestStatus{Voting,Approved,Completed}\r\n\r\n    //请求\r\n    struct Request{\r\n        string purpose; //目的\r\n        uint256 cost; //需要金额\r\n        address payable shopAddress; //which shop\r\n        uint256 voteCount;//over 50% then approve\r\n        requestStatus status; //object of requestStatus\r\n    }\r\n    mapping(address => bool) investorVotedMapping; //voted mapping\r\n    //request array\r\n    Request[] public requests;\r\n\r\n    //create a new request\r\n    function createRequest(string memory _purpose, uint256 _cost\r\n    , address payable _shopAddress) public onlyManager{\r\n        Request memory req = Request({\r\n            purpose : _purpose,\r\n            cost : _cost,\r\n            shopAddress : _shopAddress,\r\n            voteCount : 0,\r\n            status : requestStatus.Voting\r\n        });\r\n        requests.push(req);\r\n    }\r\n\r\n    //approve request function\r\n    function approveRequest(uint256 index) public{\r\n        //check if the investor is in this project or not\r\n        require(investMapping[msg.sender]);\r\n        //check Request[]\r\n        Request storage req = requests[index];\r\n        //check if voted or not\r\n        require(investorVotedMapping[msg.sender] == false);\r\n        //check if the status is voting or not , if approved and completed then no need vote again\r\n        require(req.status == requestStatus.Voting);\r\n        \r\n        //vote count + 1\r\n        req.voteCount += 1;\r\n        investorVotedMapping[msg.sender] = true; //set the investor voted\r\n        //over half vote count then \r\n        if(req.voteCount * 2 > investors.length){\r\n            req.status == requestStatus.Approved;\r\n        }\r\n    }\r\n\r\n    //completed request\r\n    function finalizeRequest(uint256 index)onlyManager public{\r\n        //transfer money\r\n        \r\n        Request storage req = requests[index];\r\n        //check if balance is enough\r\n        require(address(this).balance >= req.cost);\r\n        //check if over half vote count\r\n        require(req.voteCount * 2 > investors.length);\r\n        //transfer\r\n        req.shopAddress.transfer(req.cost);\r\n        //update request status\r\n        req.status = requestStatus.Completed;\r\n\r\n    }\r\n\r\n    //get balance\r\n    function getBalance()public view returns(uint256){\r\n        return address(this).balance;\r\n    }\r\n\r\n    //get investors\r\n    function getInvestors()public view returns(address payable[] memory){\r\n        return investors;\r\n    }\r\n\r\n    //get investors number\r\n    function getInvestorsCount() public view returns (uint256){\r\n        return investors.length;\r\n    }\r\n\r\n    //get remaining time\r\n    function getRemainTime()public view returns (uint256){\r\n        return (deadline - block.timestamp) / 60 / 60 / 24 ;//sec\r\n    }\r\n\r\n    //get requested count\r\n    function getRequestsCount() public view returns (uint256){\r\n        return requests.length;\r\n    }\r\n\r\n    //get request detail\r\n    function getRequestDetail(uint256 index) public view \r\n        returns(string memory,uint256,address,bool,uint256,uint256) {\r\n        require(requests.length > index);\r\n        Request storage req = requests[index];\r\n        bool voted = investorVotedMapping[msg.sender];\r\n        return (req.purpose, req.cost, req.shopAddress, voted, req.voteCount, uint256(req.status));\r\n    }\r\n    \r\n}\r\n\r\ncontract FundingCompany{\r\n    //platform manager\r\n    address public platformManager;\r\n    //all of the funding \r\n    address[] allFundings;\r\n    //creator of funding\r\n    mapping(address => address[]) creatorFundings;\r\n    //investor contract\r\n    InvestorFundingContract investorfunding;\r\n\r\n    constructor() public{\r\n        platformManager = msg.sender;\r\n        //new a investor funding contract\r\n        investorfunding = new InvestorFundingContract();\r\n    }\r\n\r\n    //create new funding\r\n    function createFunding(string memory _name, uint _investMoney\r\n        , uint _targetMoney, string memory _projectDescrip,uint _duration) public{\r\n        address funding = address(new Funding(_name, _investMoney, _targetMoney\r\n            ,_projectDescrip , _duration, msg.sender, investorfunding));\r\n        //add in funding list\r\n        allFundings.push(funding);\r\n        //add in creator of funding list\r\n        creatorFundings[msg.sender].push(funding);\r\n    }\r\n    \r\n    //return all funding list\r\n    function getAllFundings() public view returns(address[] memory){\r\n        return allFundings;\r\n    }\r\n\r\n    //return all creator of funding list\r\n    function getCreatorFundings() public view returns (address[] memory){\r\n        return creatorFundings[msg.sender];\r\n    }\r\n\r\n    //return the funding of current account which participates\r\n    function getInvestorFunding() public view returns (address[] memory){\r\n        return investorfunding.getFundings(msg.sender);\r\n    }\r\n}\r\n\r\n//contract of investor that participate in the funding\r\ncontract InvestorFundingContract{\r\n    //investor funding mapping\r\n    mapping(address => address[]) investorFundingMap;\r\n\r\n    //set the investor that invest this funding project\r\n    function setFunding(address _investor, address _funding) public {\r\n        investorFundingMap[_investor].push(_funding);\r\n    }\r\n\r\n    //get all the funding project\r\n    function getFundings(address _investor) public view returns (address[] memory) {\r\n        return investorFundingMap[_investor];\r\n    }\r\n}",
  "sourcePath": "C:/Users/ASUS/Desktop/Coding/VSWorkSpace/fundingdapp/contracts/FundingCompany.sol",
  "compiler": {
    "name": "solc",
    "version": "0.7.0+commit.9e61f92b.Emscripten.clang"
  },
  "schemaVersion": "3.3.3",
  "updatedAt": "2021-01-13T10:34:23.911Z",
  "networkType": "ethereum",
  "devdoc": {
    "kind": "dev",
    "methods": {},
    "version": 1
  },
  "userdoc": {
    "kind": "user",
    "methods": {},
    "version": 1
  }
}